:020000040000FA
:100000000C9458000C9480000C9480000C94800098
:100010000C9480000C9480000C9480000C94800060
:100020000C9480000C9480000C9480000C94800050
:100030000C9480000C9480000C9480000C94800040
:100040000C94CC030C9480000C949A030C947403CD
:100050000C9480000C9480000C9480000C94800020
:100060000C9416040C948000000000002500280069
:100070002B00040404040404040402020202020229
:10008000030303030303010204081020408001025C
:1000900004081020010204081020000000080002DB
:1000A0000100000304070000000000000000350507
:1000B00011241FBECFEFD8E0DEBFCDBF11E0A0E01E
:1000C000B1E0E0EBF1E102C005900D92A434B1077C
:1000D000D9F722E0A4E4B1E001C01D92A439B2072F
:1000E000E1F710E0C8E5D0E004C02197FE010E94CE
:1000F000D008C735D107C9F70E946E050C94D60801
:100100000C9400000895CF93DF93AC01E091E501DA
:10011000F091E6013097F1F09091E4018091E301D4
:100120009817C0F090E0292F30E02617370754F4D5
:10013000D901AC5BBE4F240F351FE90128812C93F8
:100140009F5FF1CF1092E4016093E301CB01DF9157
:10015000CF910994DF91CF910895AF92BF92CF9242
:10016000DF92EF92FF920F931F93CF93DF936C0177
:100170007B018B01040F151FEB015E01AE18BF0858
:10018000C017D10759F06991D601ED91FC9101900A
:10019000F081E02DC6010995892B79F7C501DF9122
:1001A000CF911F910F91FF90EF90DF90CF90BF9074
:1001B000AF900895FC01538D448D252F30E0842F9E
:1001C00090E0821B930B541710F0CF96089501977F
:1001D0000895FC01918D828D981761F0A28DAE0F6C
:1001E000BF2FB11D5D968C91928D9F5F9F73928FF3
:1001F00090E008958FEF9FEF0895FC01918D828D1F
:10020000981731F0828DE80FF11D858D90E00895EB
:100210008FEF9FEF0895FC01918D228D892F90E043
:10022000805C9F4F821B91098F73992708958BEEF5
:1002300091E00E940B0121E0892B09F420E0822F3C
:10024000089580E090E0892B29F00E941701811128
:100250000C9400000895FC01A48DA80FB92FB11DC6
:10026000A35ABF4F2C91848D90E001968F739927EC
:10027000848FA689B7892C93A089B1898C918370CA
:1002800080648C93938D848D981306C00288F389C3
:10029000E02D80818F7D80830895EF92FF920F93F0
:1002A0001F93CF93DF93EC0181E0888F9B8D8C8D22
:1002B00098131AC0E889F989808185FF15C09FB716
:1002C000F894EE89FF896083E889F98980818370D9
:1002D000806480839FBF81E090E0DF91CF911F9188
:1002E0000F91FF90EF900895F62E0B8D10E00F5FA9
:1002F0001F4F0F731127E02E8C8D8E110CC00FB67F
:1003000007FCFACFE889F989808185FFF5CFCE0116
:100310000E942B01F1CFEB8DEC0FFD2FF11DE35A65
:10032000FF4FF0829FB7F8940B8FEA89FB89808199
:100330008062CFCFCF93DF93EC01888D8823B9F013
:10034000AA89BB89E889F9898C9185FD03C08081E0
:1003500086FD0DC00FB607FCF7CF8C9185FFF2CF5D
:10036000808185FFEDCFCE010E942B01E9CFDF9187
:10037000CF91089590E0FC01E656FF4F2491FC01D7
:10038000EA57FF4F3491FC01EE58FF4FE491EE2302
:10039000C9F0222339F0233001F1A8F4213019F1FA
:1003A000223029F1F0E0EE0FFF1FE859FF4FA59131
:1003B000B4918FB7F894EC91611126C030953E232B
:1003C0003C938FBF08952730A9F02830C9F024301E
:1003D00049F7809180008F7D03C0809180008F77E6
:1003E00080938000DFCF84B58F7784BDDBCF84B569
:1003F0008F7DFBCF8091B0008F778093B000D2CFFC
:100400008091B0008F7DF9CF3E2BDACF3FB7F894C3
:100410008091D9019091DA01A091DB01B091DC01CA
:1004200026B5A89B05C02F3F19F00196A11DB11D4F
:100430003FBFBA2FA92F982F8827BC01CD01620F8B
:10044000711D811D911D42E0660F771F881F991F46
:100450004A95D1F7089520918A01260F3327331F3B
:1004600021323105ECF42091AE01FC0190E080E0F6
:10047000243069F082E00895A0918A012191AC01B5
:1004800046595E4FA40FB52FB11D2C9301968617C8
:1004900098F380918A01680F60938A0180E0089543
:1004A00081E008951092AE0181E08093B001109236
:1004B000AF0161E082E10E94BA0161E083E10E9444
:1004C000BA01E9EBF0E080818E7F808380818D7FAF
:1004D000808388E48093B80085E48093BC0008950D
:1004E0000895E091E4018091E301E81730F4F0E031
:1004F000EC5BFE4F808190E008958FEF9FEF0895B1
:100500009091E4018091E3012FEF3FEF981748F4B9
:10051000E92FF0E0EC5BFE4F208130E09F5F90938D
:10052000E401C901089588E892E00E948002BC01BC
:10053000990F880B990B0E9487076093E7017093CE
:10054000E8018093E9019093EA0108958091E30125
:100550009091E401891B990B0895CF93DF93CB0110
:10056000EA01642F0E942B02CE01DF91CF91089502
:10057000CF93DF931F92CDB7DEB7698361E0CE01E1
:1005800001960E942B0281E090E00F90DF91CF91C5
:10059000089590E080E00895FC0101900020E9F7C3
:1005A0003197AF01481B590BBC018BEE91E00C94C5
:1005B000AD008F929F92AF92BF920F931F93CF93F4
:1005C000DF93CDB7DEB7A1970FB6F894DEBF0FBEAD
:1005D000CDBF19A2423008F44AE08E010F5D1F4FD3
:1005E000842E912CB12CA12CA50194010E94AE085F
:1005F000E62FB901CA01EA30F4F4E05DD801EE93C8
:100600008D01232B242B252B79F790E080E0109788
:1006100019F0CD010E94CC02A1960FB6F894DEBF6E
:100620000FBECDBFDF91CF911F910F91BF90AF90C3
:100630009F908F900895E95CE1CFCF93DF9385ED94
:100640008093BC008091660190916701A091680140
:10065000B09169010796A11DB11D23E0B695A7953C
:10066000979587952A95D1F72091BC0024FD03C06A
:100670001092AE0136C040916601509167016091C1
:10068000680170916901452B462B472B69F3009750
:10069000A105B10541F025E32A95F1F70000019786
:1006A000A109B109E1CF8091650191E090936401C6
:1006B0008823B9F0C091B800D091BA008091BC00F5
:1006C0008A7B8093BC0060E082E10E94BA0160E016
:1006D00083E10E94BA010E945202D093BA00C093F3
:1006E000B800DF91CF9108951F920F920FB60F922D
:1006F00011242F933F934F935F936F937F938F9327
:100700009F93AF93BF93EF93FF938BEE91E00E9483
:100710002B01FF91EF91BF91AF919F918F917F91AD
:100720006F915F914F913F912F910F900FBE0F905E
:100730001F9018951F920F920FB60F9211242F93AE
:100740008F939F93EF93FF93E091FB01F091FC0156
:100750008081E0910102F091020282FD1BC0908134
:10076000809104028F5F8F7320910502821741F000
:10077000E0910402F0E0E551FE4F958F8093040272
:10078000FF91EF919F918F912F910F900FBE0F903E
:100790001F9018958081F4CF1F920F920FB60F9281
:1007A00011242F933F938F939F93AF93BF93809187
:1007B000D5019091D601A091D701B091D801309187
:1007C000D40123E0230F2D3758F50196A11DB11D4B
:1007D0002093D4018093D5019093D601A093D701A3
:1007E000B093D8018091D9019091DA01A091DB01F9
:1007F000B091DC010196A11DB11D8093D9019093A8
:10080000DA01A093DB01B093DC01BF91AF919F911E
:100810008F913F912F910F900FBE0F901F901895C1
:1008200026E8230F0296A11DB11DD2CF1F920F9271
:100830000FB60F9211242F933F934F935F936F93B3
:100840007F938F939F93AF93BF93EF93FF93809189
:10085000B900887F803609F44AC0F0F5883209F47F
:10086000A7C018F5803109F49BC0B8F4882309F4B7
:10087000F9C0883009F494C0FF91EF91BF91AF9116
:100880009F918F917F916F915F914F913F912F91A8
:100890000F900FBE0F901F901895883109F488C0F3
:1008A000803251F78093AD0114C0803409F49DC0AB
:1008B00040F48033B9F38833F9F68093AD0185ECC9
:1008C000B0C0803509F485C0883509F496C08834F5
:1008D00099F60E941D03D0CF883909F48CC038F5F1
:1008E000883729F050F4883611F0803729F683E0F4
:1008F0008093AE011092AC0157C0883809F47BC0D8
:10090000803919F0803809F0B7CF8091AC0180327E
:1009100008F071C0E091AC0181E08E0F8093AC01D2
:100920008091BB00F0E0E457FE4F80833DC0803BE8
:1009300039F0E0F4803A09F479C0883A09F09CCFA4
:1009400084E08093AE0110928B0110928A01E091B5
:10095000DF01F091E001099580918A0181110FC0BA
:1009600081E080938A0110926A0109C0803C09F4F9
:10097000A6CF883C09F4A3CF883B09F07DCFE09156
:100980008B0181E08E0F80938B01F0E0E659FE4FE2
:1009900080818093BB0090918B0180918A0129C056
:1009A0008091D3018093BB0085EC8093BC0064CF21
:1009B0009091D2018091D101981758F5E091D20120
:1009C00081E08E0F8093D201F0E0EF54FE4F8081E2
:1009D000E9CFE091D20181E08E0F8093D201809126
:1009E000BB00F0E0EF54FE4F80839091D2018091E4
:1009F000D1019817C8F285E8D8CFE091D20181E003
:100A00008E0F8093D2018091BB00F0E0EF54FE4F37
:100A100080838091B00181115CCF81E08093AF0130
:100A200084EA8093BC001092AE0126CF85EC8093BF
:100A3000BC001092AE018091AC01803230F4E091A4
:100A4000AC01F0E0E457FE4F10826091AC0170E021
:100A5000E091DD01F091DE018CE891E009951092C2
:100A6000AC010ACF1092AD0134CFEBEEF1E013826E
:100A7000128288EE93E0A0E0B0E084839583A683A1
:100A8000B78324E031E03183208325EC30E03587E3
:100A9000248724EC30E03787268720EC30E0318B48
:100AA000208B21EC30E0338B228B22EC30E0358B35
:100AB000248B26EC30E0378B268B118E128E138E12
:100AC000148EE8E8F2E01382128284839583A68371
:100AD000B78386E191E0918380830895789484B50B
:100AE000826084BD84B5816084BD85B5826085BD2A
:100AF00085B5816085BD80916E00816080936E00B8
:100B000010928100809181008260809381008091A9
:100B1000810081608093810080918000816080935A
:100B200080008091B10084608093B1008091B0001A
:100B300081608093B00080917A00846080937A0015
:100B400080917A00826080937A0080917A0081603F
:100B500080937A0080917A00806880937A00109266
:100B6000C1001092E4011092E3011092E201109290
:100B7000E1010E94520282E890E09093E0018093AC
:100B8000DF0183E890E09093DE018093DD0188E04F
:100B90008093BA0083E992E09093E6018093E501A7
:100BA000E091FB01F091FC0182E08083E091F7018C
:100BB000F091F8011082E091F901F091FA018FECC7
:100BC000808310920302E091FF01F091000286E021
:100BD0008083E091FD01F091FE018081806180833E
:100BE000E091FD01F091FE01808188608083E091B9
:100BF000FD01F091FE01808180688083E091FD011C
:100C0000F091FE0180818F7D8083C0E0D0E084E29E
:100C100091E00E94CC02C090E701D090E801E09002
:100C2000E901F090EA01A7019601C701B6010E940F
:100C3000A9088823B9F185E391E00E94CC0281E400
:100C400091E00E94CC020E9406024B015C0184E606
:100C5000C82ED12CE12CF12C0E94060268197909CA
:100C60008A099B09683E734081059105A8F321E03C
:100C7000C21AD108E108F10888EE880E83E0981EB8
:100C8000A11CB11CC114D104E104F10429F720977F
:100C900009F4BDCF0E941701882309F4B8CF0E9440
:100CA0000000B5CF46015701E894B7F82FEF3FEFAA
:100CB0004FE75FE7C501B4010E94A90881110DC08B
:100CC0002FEF3FEF4FE75FE7C501B4010E945107E7
:100CD00018161CF489E391E0B0CF2FEF3FEF4FE7F8
:100CE0005FE4C701B6010E94370818161CF48DE3B3
:100CF00091E0A3CF2FEF3FEF4FE75FECC701B601C5
:100D00000E94510787FDF3CF20E030E0A901C70121
:100D1000B6010E94510787FF09C06DE28BEE91E09A
:100D20000E944D01F7FAF094F7F8F0942AE037EDBD
:100D300043EA5BE3C701B6010E94E5064B015C0193
:100D40000E9456076B017C010E9485079B01AC0144
:100D5000C501B4010E94E4064B015C014AE0C701F1
:100D6000B6010E94D9026EE28BEE91E00E944D0125
:100D700020E030E040E251E4C501B4010E943C08AB
:100D80004B015C010E9456076B01F12CE12C4AE0FB
:100D9000C701B6010E94D902C701B6010E948507AA
:100DA0009B01AC01C501B4010E94E40620E030E0E3
:100DB00040E251E40E943C080E94560790E080E027
:100DC0004AE00E94D9023BCF5058BB27AA270E9475
:100DD000FC060C94FD070E94EF0738F00E94F6070E
:100DE00020F039F49F3F19F426F40C94EC070EF42C
:100DF000E095E7FB0C94E607E92F0E940E0858F3F4
:100E0000BA17620773078407950720F079F4A6F5EF
:100E10000C9430080EF4E0950B2EBA2FA02D0B0188
:100E2000B90190010C01CA01A0011124FF27591B2F
:100E300099F0593F50F4503E68F11A16F040A22F35
:100E4000232F342F4427585FF3CF469537952795A6
:100E5000A795F0405395C9F77EF41F16BA0B620BA5
:100E6000730B840BBAF09150A1F0FF0FBB1F661FEC
:100E7000771F881FC2F70EC0BA0F621F731F841F2F
:100E800048F4879577956795B795F7959E3F08F055
:100E9000B0CF9395880F08F09927EE0F9795879517
:100EA00008950E94C20708F481E008950E94160880
:100EB00088F09F5798F0B92F9927B751B0F0E1F01B
:100EC000660F771F881F991F1AF0BA95C9F714C0CB
:100ED000B13091F00E943008B1E008950C943008D0
:100EE000672F782F8827B85F39F0B93FCCF3869504
:100EF00077956795B395D9F73EF490958095709561
:100F000061957F4F8F4F9F4F0895E89409C097FBDD
:100F10003EF490958095709561957F4F8F4F9F4FD0
:100F20009923A9F0F92F96E9BB279395F695879514
:100F300077956795B795F111F8CFFAF4BB0F11F4D7
:100F400060FF1BC06F5F7F4F8F4F9F4F16C088237E
:100F500011F096E911C0772321F09EE8872F762FB4
:100F600005C0662371F096E8862F70E060E02AF0F5
:100F70009A95660F771F881FDAF7880F96958795E1
:100F800097F90895990F0008550FAA0BE0E8FEEFB6
:100F900016161706E807F907C0F012161306E4073D
:100FA000F50798F0621B730B840B950B39F40A2636
:100FB00061F0232B242B252B21F408950A2609F414
:100FC000A140A6958FEF811D811D089597F99F6718
:100FD00080E870E060E008959FEF80EC08950024C1
:100FE0000A941616170618060906089500240A948E
:100FF00012161306140605060895092E0394000C14
:1010000011F4882352F0BB0F40F4BF2B11F460FFA2
:1010100004C06F5F7F4F8F4F9F4F089557FD9058CB
:10102000440F551F59F05F3F71F04795880F97FBAC
:10103000991F61F09F3F79F0879508951216130666
:101040001406551FF2CF4695F1DF08C01616170695
:101050001806991FF1CF86957105610508940895CA
:10106000E894BB2766277727CB0197F908950E945C
:10107000C20708F48FEF08950E944F080C94FD07F3
:101080000E94EF0738F00E94F60720F0952311F038
:101090000C94E6070C94EC0711240C9431080E9480
:1010A0000E0870F3959FC1F3950F50E0551F629F96
:1010B000F001729FBB27F00DB11D639FAA27F00DB1
:1010C000B11DAA1F649F6627B00DA11D661F829FD8
:1010D0002227B00DA11D621F739FB00DA11D621FBD
:1010E000839FA00D611D221F749F3327A00D611DDA
:1010F000231F849F600D211D822F762F6A2F1124BC
:101100009F5750409AF0F1F088234AF0EE0FFF1FEE
:10111000BB1F661F771F881F91505040A9F79E3F45
:10112000510580F00C94E6070C9431085F3FE4F31E
:10113000983ED4F3869577956795B795F795E7959B
:101140009F5FC1F7FE2B880F911D9695879597F9A4
:1011500008950E94C207880B990B0895A1E21A2EE8
:10116000AA1BBB1BFD010DC0AA1FBB1FEE1FFF1F4B
:10117000A217B307E407F50720F0A21BB30BE40B9B
:10118000F50B661F771F881F991F1A9469F76095E2
:101190007095809590959B01AC01BD01CF0108959C
:1011A000EE0FFF1F0590F491E02D0994F894FFCF06
:1011B000000000004D01AD00DA009A010B01E900CA
:1011C000FD0000000000B802AD02C9027002A602D4
:1011D0008002710252656365697665642074656D8D
:1011E00070203A20006E616E00696E66006F766650
:0411F000000D0A00E4
:107E0000112484B714BE81FFF0D085E080938100F7
:107E100082E08093C00088E18093C10086E0809377
:107E2000C20080E18093C4008EE0C9D0259A86E02C
:107E300020E33CEF91E0309385002093840096BBD3
:107E4000B09BFECF1D9AA8958150A9F7CC24DD24C4
:107E500088248394B5E0AB2EA1E19A2EF3E0BF2EE7
:107E6000A2D0813461F49FD0082FAFD0023811F036
:107E7000013811F484E001C083E08DD089C08234E0
:107E800011F484E103C0853419F485E0A6D080C0E4
:107E9000853579F488D0E82EFF2485D0082F10E0AE
:107EA000102F00270E291F29000F111F8ED06801E7
:107EB0006FC0863521F484E090D080E0DECF843638
:107EC00009F040C070D06FD0082F6DD080E0C81688
:107ED00080E7D80618F4F601B7BEE895C0E0D1E017
:107EE00062D089930C17E1F7F0E0CF16F0E7DF06D8
:107EF00018F0F601B7BEE89568D007B600FCFDCFD4
:107F0000A601A0E0B1E02C9130E011968C91119780
:107F100090E0982F8827822B932B1296FA010C0160
:107F200087BEE89511244E5F5F4FF1E0A038BF0790
:107F300051F7F601A7BEE89507B600FCFDCF97BE46
:107F4000E89526C08437B1F42ED02DD0F82E2BD052
:107F50003CD0F601EF2C8F010F5F1F4F84911BD097
:107F6000EA94F801C1F70894C11CD11CFA94CF0C13
:107F7000D11C0EC0853739F428D08EE10CD085E9AC
:107F80000AD08FE07ACF813511F488E018D01DD067
:107F900080E101D065CF982F8091C00085FFFCCF94
:107FA0009093C60008958091C00087FFFCCF809118
:107FB000C00084FD01C0A8958091C6000895E0E648
:107FC000F0E098E1908380830895EDDF803219F02E
:107FD00088E0F5DFFFCF84E1DECF1F93182FE3DFCA
:107FE0001150E9F7F2DF1F91089580E0E8DFEE27F6
:047FF000FF270994CA
:027FFE00040479
:00000001FF
