:100000000C945D000C9485000C9485000C94850084
:100010000C9485000C9485000C9485000C9485004C
:100020000C9485000C9485000C9485000C9485003C
:100030000C9485000C9485000C9485000C9485002C
:100040000C94D9030C9485000C94A7030C948103A1
:100050000C9485000C9485000C9485000C9485000C
:100060000C9423040C948500000000080002010099
:100070000003040700000000000000000000000072
:10008000250028002B0000000000240027002A0083
:10009000040404040404040402020202020203032E
:1000A0000303030301020408102040800102040836
:1000B0001020010204081020420511241FBECFEFBA
:1000C000D8E0DEBFCDBF11E0A0E0B1E0ECE8FDE09C
:1000D00002C005900D92A233B107D9F722E0A2E346
:1000E000B1E001C01D92A038B207E1F710E0CDE504
:1000F000D0E004C02197FE010E94BE06CC35D10796
:10010000C9F70E947B050C94C4060C94000090E093
:10011000FC01EC55FF4F249180579F4FFC018491C7
:10012000882399F090E0880F991FFC01EA57FF4F50
:10013000A591B491FC01E458FF4F859194918FB73C
:10014000F894EC91E22BEC938FBF08950895CF9330
:10015000DF93AC01E091D301F091D4013097F1F03D
:100160009091D2018091D1019817C0F090E0292F91
:1001700030E02617370754F4D901AE5CBE4F240F88
:10018000351FE90128812C939F5FF1CF1092D20196
:100190006093D101CB01DF91CF910994DF91CF9191
:1001A0000895AF92BF92CF92DF92EF92FF920F939A
:1001B0001F93CF93DF936C017B018B01040F151FFD
:1001C000EB015E01AE18BF08C017D10759F0699165
:1001D000D601ED91FC910190F081E02DC6010995C9
:1001E000892B79F7C501DF91CF911F910F91FF9076
:1001F000EF90DF90CF90BF90AF900895FC01538DAA
:10020000448D252F30E0842F90E0821B930B5417F0
:1002100010F0CF96089501970895FC01918D828D7D
:10022000981761F0A28DAE0FBF2FB11D5D968C9116
:10023000928D9F5F9F73928F90E008958FEF9FEF55
:100240000895FC01918D828D981731F0828DE80F11
:10025000F11D858D90E008958FEF9FEF0895FC01CB
:10026000918D228D892F90E0805C9F4F821B910998
:100270008F739927089587ED91E00E942F0121E067
:10028000892B09F420E0822F089580E090E0892BEB
:1002900029F00E943B0181110C9400000895FC019B
:1002A000A48DA80FB92FB11DA35ABF4F2C91848DD7
:1002B00090E001968F739927848FA689B7892C9334
:1002C000A089B1898C91837080648C93938D848D87
:1002D000981306C00288F389E02D80818F7D80838A
:1002E0000895EF92FF920F931F93CF93DF93EC014A
:1002F00081E0888F9B8D8C8D98131AC0E889F989CD
:10030000808185FF15C09FB7F894EE89FF896083CF
:10031000E889F98980818370806480839FBF81E050
:1003200090E0DF91CF911F910F91FF90EF90089592
:10033000F62E0B8D10E00F5F1F4F0F731127E02E6D
:100340008C8D8E110CC00FB607FCFACFE889F989A5
:10035000808185FFF5CFCE010E944F01F1CFEB8D5B
:10036000EC0FFD2FF11DE35AFF4FF0829FB7F89479
:100370000B8FEA89FB8980818062CFCFCF93DF9397
:10038000EC01888D8823B9F0AA89BB89E889F989AD
:100390008C9185FD03C0808186FD0DC00FB607FCE2
:1003A000F7CF8C9185FFF2CF808185FFEDCFCE0115
:1003B0000E944F01E9CFDF91CF91089590E0FC01B9
:1003C000E859FF4F2491FC01EC55FF4F3491FC019B
:1003D000E057FF4FE491EE23C9F0222339F0233098
:1003E00001F1A8F4213019F1223029F1F0E0EE0FEB
:1003F000FF1FE458FF4FA591B4918FB7F894EC918B
:10040000611126C030953E233C938FBF089527305D
:10041000A9F02830C9F0243049F7809180008F7D01
:1004200003C0809180008F7780938000DFCF84B5F8
:100430008F7784BDDBCF84B58F7DFBCF8091B000FB
:100440008F778093B000D2CF8091B0008F7DF9CFAD
:100450003E2BDACF1F93CF93DF93182FEB010E942F
:100460008700209739F460E0812FDF91CF911F91B1
:100470000C94DE01CF3FD10511F461E0F5CFE12FFF
:10048000F0E0E859FF4FE491E33031F140F4E1301E
:10049000B1F0E230E1F0C038D1057CF7E4CFE730CD
:1004A00029F1E83059F1E430B1F7809180008062A1
:1004B00080938000D0938B00C0938A0004C084B5E1
:1004C000806884BDC7BDDF91CF911F91089584B529
:1004D000806284BDC8BDF7CF809180008068809322
:1004E0008000D0938900C0938800EDCF8091B00048
:1004F00080688093B000C093B300E5CF8091B000D6
:1005000080628093B000C093B400DDCF2091780169
:10051000260F3327331F21323105ECF420919C0143
:10052000FC0190E080E0243069F082E00895A09121
:1005300078012191AC01485A5E4FA40FB52FB11D2F
:100540002C930196861798F380917801680F609339
:10055000780180E0089581E0089510929C0181E087
:1005600080939E0110929D0161E082E10E94DE0174
:1005700061E083E10E94DE01E9EBF0E080818E7FA3
:10058000808380818D7F808388E48093B80085E4B8
:100590008093BC0008950895E091D2018091D1012B
:1005A000E81730F4F0E0EE5CFE4F808190E00895B3
:1005B0008FEF9FEF08959091D2018091D1012FEF9D
:1005C0003FEF981748F4E92FF0E0EE5CFE4F2081F2
:1005D00030E09F5F9093D201C901089584E792E0D3
:1005E0000E94DB029093D6018093D50108958091FB
:1005F000D1019091D201891B990B0895CF93DF937C
:10060000CB01EA01642F0E948602CE01DF91CF91D7
:100610000895CF93DF931F92CDB7DEB7698361E072
:10062000CE0101960E94860281E090E00F90DF915A
:10063000CF91089590E080E00895FC0101900020A2
:10064000E9F73197AF01481B590BBC0187ED91E0E9
:100650000C94D100CF93DF9385ED8093BC00809103
:10066000540190915501A0915601B0915701079600
:10067000A11DB11D23E0B695A795979587952A955D
:10068000D1F72091BC0024FD03C010929C0136C01C
:10069000409154015091550160915601709157015C
:1006A000452B462B472B69F30097A105B10541F077
:1006B00025E32A95F1F700000197A109B109E1CFDF
:1006C0008091530191E0909352018823B9F0C09139
:1006D000B800D091BA008091BC008A7B8093BC00A6
:1006E00060E082E10E94DE0160E083E10E94DE01C1
:1006F0000E94AD02D093BA00C093B800DF91CF91B1
:1007000008951F920F920FB60F9211242F933F93CB
:100710004F935F936F937F938F939F93AF93BF9309
:10072000EF93FF9387ED91E00E944F01FF91EF91CE
:10073000BF91AF919F918F917F916F915F914F91F9
:100740003F912F910F900FBE0F901F9018951F9201
:100750000F920FB60F9211242F938F939F93EF93C5
:10076000FF93E091E701F091E8018081E091ED01D4
:10077000F091EE0182FD1BC090818091F0018F5FAE
:100780008F732091F101821741F0E091F001F0E0C8
:10079000E952FE4F958F8093F001FF91EF919F9169
:1007A0008F912F910F900FBE0F901F901895808101
:1007B000F4CF1F920F920FB60F9211242F933F93F5
:1007C0008F939F93AF93BF938091C7019091C8017E
:1007D000A091C901B091CA013091C60123E0230F55
:1007E0002D3758F50196A11DB11D2093C6018093A8
:1007F000C7019093C801A093C901B093CA01809129
:10080000C2019091C301A091C401B091C5010196AC
:10081000A11DB11D8093C2019093C301A093C40197
:10082000B093C501BF91AF919F918F913F912F914F
:100830000F900FBE0F901F90189526E8230F029679
:10084000A11DB11DD2CF1F920F920FB60F9211248E
:100850002F933F934F935F936F937F938F939F93C8
:10086000AF93BF93EF93FF938091B900887F803659
:1008700009F44AC0F0F5883209F4A7C018F58031B0
:1008800009F49BC0B8F4882309F4F9C0883009F44E
:1008900094C0FF91EF91BF91AF919F918F917F9104
:1008A0006F915F914F913F912F910F900FBE0F90DD
:1008B0001F901895883109F488C0803251F78093D1
:1008C0009B0114C0803409F49DC040F48033B9F317
:1008D0008833F9F680939B0185ECB0C0803509F42C
:1008E00085C0883509F496C0883499F60E942A0399
:1008F000D0CF883909F48CC038F5883729F050F406
:10090000883611F0803729F683E080939C0110929D
:100910009A0157C0883809F47BC0803919F08038B3
:1009200009F0B7CF80919A01803208F071C0E09150
:100930009A0181E08E0F80939A018091BB00F0E0D4
:10094000E658FE4F80833DC0803B39F0E0F4803AAA
:1009500009F479C0883A09F09CCF84E080939C0127
:100960001092790110927801E091CD01F091CE01C1
:1009700009958091780181110FC081E08093780101
:100980001092580109C0803C09F4A6CF883C09F4B4
:10099000A3CF883B09F07DCFE091790181E08E0FF4
:1009A00080937901F0E0E85AFE4F80818093BB008C
:1009B000909179018091780129C08091C101809343
:1009C000BB0085EC8093BC0064CF9091C001809106
:1009D000BF01981758F5E091C00181E08E0F809318
:1009E000C001F0E0E156FE4F8081E9CFE091C00107
:1009F00081E08E0F8093C0018091BB00F0E0E15652
:100A0000FE4F80839091C0018091BF019817C8F27A
:100A100085E8D8CFE091C00181E08E0F8093C001BE
:100A20008091BB00F0E0E156FE4F808380919E01F3
:100A300081115CCF81E080939D0184EA8093BC00AA
:100A400010929C0126CF85EC8093BC0010929C01F3
:100A500080919A01803230F4E0919A01F0E0E658FA
:100A6000FE4F108260919A0170E0E091CB01F0910D
:100A7000CC018AE791E0099510929A010ACF109271
:100A80009B0134CFE7EDF1E01382128288EE93E010
:100A9000A0E0B0E084839583A683B78326E031E0AD
:100AA0003183208325EC30E03587248724EC30E047
:100AB0003787268720EC30E0318B208B21EC30E02B
:100AC000338B228B22EC30E0358B248B26EC30E00C
:100AD000378B268B118E128E138E148EE4E7F2E084
:100AE0001382128284839583A683B78388E191E081
:100AF000918380830895CF93DF93CDB7DEB7A1971D
:100B00000FB6F894DEBF0FBECDBF789484B5826077
:100B100084BD84B5816084BD85B5826085BD85B5A1
:100B2000816085BD80916E00816080936E0010921F
:100B3000810080918100826080938100809181009A
:100B4000816080938100809180008160809380002B
:100B50008091B10084608093B1008091B000816089
:100B60008093B00080917A00846080937A008091B5
:100B70007A00826080937A0080917A00816080930D
:100B80007A0080917A00806880937A001092C10088
:100B90001092D2011092D1011092D0011092CF0187
:100BA0000E94AD0286EA90E09093CE018093CD0141
:100BB00087EA90E09093CC018093CB018AE0809308
:100BC000BA008EEE92E09093D4018093D3018DE031
:100BD0000E9487008BE00E948700E091E701F0917E
:100BE000E80182E08083E091E301F091E40110826A
:100BF000E091E501F091E6018FEC80831092EF0126
:100C0000E091EB01F091EC0186E08083E091E90155
:100C1000F091EA01808180618083E091E901F091A7
:100C2000EA01808188608083E091E901F091EA0126
:100C3000808180688083E091E901F091EA01808100
:100C40008F7D80838AE0482E512C612C712C0FEF10
:100C500010E090E0A92E90E0B92E86E291E00E948B
:100C60001D038EE291E00E941D03C090D501D0903B
:100C7000D6010D2C000CEE08FF08F7FE47C06DE210
:100C800087ED91E00E94710122273327A9012C19D9
:100C90003D094E095F0919A2CE0181967C01CA0166
:100CA000B901A30192010E949C06605DF701629365
:100CB0007F01211531054105510589F7E114F10442
:100CC00019F0C7010E941D038EE291E00E941D03EE
:100CD0006091D5017091D6017801E61AF70AF09279
:100CE0000101E09200018DE00E942A02B7018BE031
:100CF0000E942A02A114B10409F4AFCF0E943B0163
:100D0000882309F4AACF0E940000A7CFA70196016B
:100D100019A2CE0181967C01CA01B901A3019201F9
:100D20000E949C06605DF70162937F0121153105E9
:100D30004105510589F7C2CFA1E21A2EAA1BBB1BA0
:100D4000FD010DC0AA1FBB1FEE1FFF1FA217B30797
:100D5000E407F50720F0A21BB30BE40BF50B661FAD
:100D6000771F881F991F1A9469F760957095809571
:100D700090959B01AC01BD01CF010895EE0FFF1FBF
:0C0D80000590F491E02D0994F894FFCF49
:100D8C00FF00000000007101D100FE00BE012F0128
:100D9C000D012101000000000903FE021A03CB0221
:100DAC00F702DB02CC02536C6176652032000D0A2F
:020DBC00000035
:00000001FF
