:020000040000FA
:100000000C9462000C948A000C948A000C948A0070
:100010000C948A000C948A000C948A000C948A0038
:100020000C948A000C948A000C948A000C948A0028
:100030000C948A000C948A000C948A000C948A0018
:100040000C9455050C948A000C9423050C94FD0423
:100050000C948A000C948A000C948A000C948A00F8
:100060000C949F050C948A000000000024002700D7
:100070002A0000000000250028002B0000000000DE
:1000800023002600290004040404040404040202DA
:100090000202020203030303030301020408102007
:1000A0004080010204081020010204081020000012
:1000B0000008000201000003040700000000000027
:1000C0000000030711241FBECFEFD8E0DEBFCDBF75
:1000D00011E0A0E0B1E0ECEDF7E102C005900D9277
:1000E000AC34B107D9F722E0ACE4B1E001C01D9215
:1000F000A53CB207E1F710E0C2E6D0E004C02197CA
:10010000FE010E94E60BC136D107C9F70E943C07E9
:100110000C94EC0B0C94000008950895AF92BF92DC
:10012000CF92DF92EF92FF920F931F93CF93DF93C3
:100130006C017B018B01040F151FEB015E01AE18F2
:10014000BF08C017D10759F06991D601ED91FC9114
:100150000190F081E02DC6010995892B79F7C50141
:10016000DF91CF911F910F91FF90EF90DF90CF9093
:10017000BF90AF900895FC01538D448D252F30E042
:10018000842F90E0821B930B541710F0CF960895A4
:1001900001970895FC01918D828D981761F0A28DD1
:1001A000AE0FBF2FB11D5D968C91928D9F5F9F7397
:1001B000928F90E008958FEF9FEF0895FC01918D4D
:1001C000828D981731F0828DE80FF11D858D90E0BA
:1001D00008958FEF9FEF0895FC01918D228D892F57
:1001E00090E0805C9F4F821B91098F73992708953F
:1001F0008CE192E00E94EC0021E0892B09F420E0E0
:10020000822F089580E090E0892B29F00E94F80069
:1002100081110C9400000895FC01A48DA80FB92F42
:10022000B11DA35ABF4F2C91848D90E001968F731E
:100230009927848FA689B7892C93A089B1898C913D
:10024000837080648C93938D848D981306C002888C
:10025000F389E02D80818F7D80830895EF92FF9256
:100260000F931F93CF93DF93EC0181E0888F9B8DD9
:100270008C8D98131AC0E889F989808185FF15C093
:100280009FB7F894EE89FF896083E889F9898081B6
:100290008370806480839FBF81E090E0DF91CF9185
:1002A0001F910F91FF90EF900895F62E0B8D10E0A7
:1002B0000F5F1F4F0F731127E02E8C8D8E110CC016
:1002C0000FB607FCFACFE889F989808185FFF5CF61
:1002D000CE010E940C01F1CFEB8DEC0FFD2FF11D33
:1002E000E35AFF4FF0829FB7F8940B8FEA89FB899E
:1002F00080818062CFCFCF93DF93EC01888D8823FC
:10030000B9F0AA89BB89E889F9898C9185FD03C078
:10031000808186FD0DC00FB607FCF7CF8C9185FF5D
:10032000F2CF808185FFEDCFCE010E940C01E9CF95
:10033000DF91CF910895833081F028F4813099F0D6
:100340008230A9F008958730A9F08830C9F0843050
:10035000B1F4809180008F7D03C0809180008F7701
:1003600080938000089584B58F7784BD089584B507
:100370008F7DFBCF8091B0008F778093B000089580
:100380008091B0008F7DF9CFCF93DF93EBEBF0E05E
:100390008491E7EAF0E0D491E3E9F0E0C491CC2362
:1003A000A1F081110E949B01EC2FF0E0EE0FFF1FE6
:1003B000E458FF4FA591B491EC91ED2381E090E0DA
:1003C00009F480E0DF91CF91089580E090E0FACFCA
:1003D0001F93CF93DF93282F30E0F901E255FF4FB1
:1003E0008491F901E656FF4FD491F901EA57FF4F86
:1003F000C491CC23A9F0162F81110E949B01EC2FF0
:10040000F0E0EE0FFF1FEE58FF4FA591B4918FB7AC
:10041000F894EC91111108C0D095DE23DC938FBFC6
:10042000DF91CF911F910895DE2BF8CFCF93DF930B
:1004300090E0FC01E656FF4F24918A579F4FFC0144
:1004400084918823D1F090E0880F991FFC01E8592E
:10045000FF4FA591B491FC01EE58FF4FC591D49187
:1004600061110EC09FB7F8948C91E22FE0958E2316
:100470008C932881E223E8839FBFDF91CF91089579
:100480008FB7F894EC91E22BEC938FBFF6CF3FB788
:10049000F8948091B5019091B601A091B701B09107
:1004A000B80126B5A89B05C02F3F19F00196A11DE4
:1004B000B11D3FBFBA2FA92F982F8827BC01CD01AE
:1004C000620F711D811D911D42E0660F771F881F0D
:1004D000991F4A95D1F708958F929F92AF92BF923C
:1004E000CF92DF92EF92FF924B015C010E94470294
:1004F0006B017C010E9447026C197D098E099F09DE
:10050000683E734081059105A8F321E0821A9108A5
:10051000A108B10888EEC80E83E0D81EE11CF11CCA
:1005200081149104A104B10429F7FF90EF90DF90AA
:10053000CF90BF90AF909F908F90089520918D01A4
:10054000260F3327331F21323105ECF42091F201BD
:10055000FC0190E080E0243069F082E00895A091F1
:100560008D012191AC0143595E4FA40FB52FB11DF0
:100570002C930196861798F380918D01680F6093F4
:100580008D0180E0089581E008951092F20181E0EC
:100590008093F1011092CC0161E082E10E94E801B8
:1005A00061E083E10E94E801E9EBF0E080818E7F69
:1005B000808380818D7F808388E48093B80085E488
:1005C0008093BC000895CF93DF9391E090936C01EA
:1005D0008823B9F0C091B800D091BA008091BC00D6
:1005E0008A7B8093BC0060E082E10E94E80160E0C9
:1005F00083E10E94E8010E94C502D093BA00C09333
:10060000B800DF91CF910895CF92DF92EF92FF92E1
:100610000F931F93CF93DF93D0911B0281E0D132D0
:1006200008F09CC0C0911A020E9447026B017C0135
:100630008091F20181116CC082E08093F20181E02F
:100640008093F1018FEF8093F0011092EF01D0932E
:10065000EE01AAEFB1E0EEECF1E080E0D8138DC03E
:100660001092CD018091CD01CC0FC82BC093CD014C
:100670008091CC01813009F084C01092CC010E949D
:1006800047026B017C018091CD018093BB0080917A
:10069000F4019091F501A091F601B091F701892B39
:1006A0008A2B8B2BA1F00E9447020091F40110913C
:1006B000F5012091F6013091F7016C197D098E0941
:1006C0009F09061717072807390708F442C08091C9
:1006D000BC0083FDD8CF85EC8093BC000E9447020C
:1006E0006B017C018091F201823009F44CC0809151
:1006F000F0018F3F09F469C08091F001803209F464
:1007000066C08091F001803309F463C084E026C0A4
:100710008091F4019091F501A091F601B091F7015B
:10072000892B8A2B8B2B09F483CF0E9447020091DF
:10073000F4011091F5012091F6013091F7016C1947
:100740007D098E099F09061717072807390708F042
:100750006FCF8091F3010E94E30285E01092F901CE
:1007600010921B021092F801DF91CF911F910F910F
:10077000FF90EF90DF90CF9008959D9191938F5FC0
:100780006DCF85EEA9CF8091F4019091F501A091F4
:10079000F601B091F701892B8A2B8B2B09F4A2CF9C
:1007A0000E9447020091F4011091F5012091F60199
:1007B0003091F7016C197D098E099F0906171707FB
:1007C0002807390708F08ECFC4CF80E0C7CF82E07A
:1007D000C5CF83E0C3CF0895E091BE018091BD01F4
:1007E000E81730F4F0E0E45BFE4F808190E008957C
:1007F0008FEF9FEF08959091BE018091BD012FEF83
:100800003FEF981748F4E92FF0E0E45BFE4F2081BA
:1008100030E09F5F9093BE01C90108958091BD01B2
:100820009091BE01891B990B0895CF92DF92EF92B0
:10083000FF920F931F93CF93DF937C01CB018A012B
:100840002091F801222389F0EB016B01C40ED51E23
:10085000CC15DD0569F06991D701ED91FC9101900E
:10086000F081E02DC7010995F3CF642F0E949E020D
:10087000C801DF91CF911F910F91FF90EF90DF9012
:10088000CF900895CF93DF931F92CDB7DEB76983E2
:100890002091F8012223F9F020911B02203258F018
:1008A00021E030E0FC013383228390E080E00F9070
:1008B000DF91CF9108958091F901E82FF0E0E650A3
:1008C000FE4F998190838F5F8093F90180931B0283
:1008D00081E090E0ECCF61E0CE0101960E949E02A3
:1008E000F7CF90E080E00895FC0101900020E9F747
:1008F0003197AF01481B590BBC018CE192E00C947D
:100900008E008F929F92AF92BF920F931F93CF93BF
:10091000DF93CDB7DEB7A1970FB6F894DEBF0FBE59
:10092000CDBF19A2423008F44AE08E010F5D1F4F7F
:10093000842E912CB12CA12CA50194010E94F309C5
:10094000E62FB901CA01EA30F4F4E05DD801EE9374
:100950008D01232B242B252B79F790E080E0109735
:1009600019F0CD010E947404A1960FB6F894DEBF71
:100970000FBECDBFDF91CF911F910F91BF90AF9070
:100980009F908F900895E95CE1CF85ED8093BC0046
:100990008091F4019091F501A091F601B091F701D9
:1009A0000796A11DB11D23E0B695A795979587954C
:1009B0002A95D1F72091BC0024FD03C01092F201CA
:1009C00008954091F4015091F5016091F601709104
:1009D000F701452B462B472B69F30097A105B1057D
:1009E00041F025E32A95F1F700000197A109B1092B
:1009F000E1CF8091F3010C94E3021F920F920FB6A6
:100A00000F9211242F933F934F935F936F937F9394
:100A10008F939F93AF93BF93EF93FF938CE192E0FB
:100A20000E940C01FF91EF91BF91AF919F918F9127
:100A30007F916F915F914F913F912F910F900FBEDA
:100A40000F901F9018951F920F920FB60F921124BE
:100A50002F938F939F93EF93FF93E0912C02F0914C
:100A60002D028081E0913202F091330282FD1BC0A1
:100A70009081809135028F5F8F73209136028217AB
:100A800041F0E0913502F0E0E45EFD4F958F8093F8
:100A90003502FF91EF919F918F912F910F900FBE93
:100AA0000F901F9018958081F4CF1F920F920FB670
:100AB0000F9211242F933F938F939F93AF93BF93E4
:100AC0008091B1019091B201A091B301B091B401B4
:100AD0003091B00123E0230F2D3758F50196A11D69
:100AE000B11D2093B0018093B1019093B201A09306
:100AF000B301B093B4018091B5019091B601A0917A
:100B0000B701B091B8010196A11DB11D8093B50147
:100B10009093B601A093B701B093B801BF91AF9184
:100B20009F918F913F912F910F900FBE0F901F902B
:100B3000189526E8230F0296A11DB11DD2CF1F9252
:100B40000F920FB60F9211242F933F934F935F9301
:100B50006F937F938F939F93AF93BF93EF93FF9385
:100B60008091B900887F803609F44AC0F0F5883258
:100B700009F4A7C018F5803109F49BC0B8F48823A4
:100B800009F4F9C0883009F494C0FF91EF91BF9146
:100B9000AF919F918F917F916F915F914F913F9115
:100BA0002F910F900FBE0F901F901895883109F468
:100BB00088C0803251F78093F00114C0803409F46A
:100BC0009DC040F48033B9F38833F9F68093F00187
:100BD00085ECB0C0803509F485C0883509F496C02D
:100BE000883499F60E94C504D0CF883909F48CC0A6
:100BF00038F5883729F050F4883611F0803729F617
:100C000083E08093F2011092AF0157C0883809F455
:100C10007BC0803919F0803809F0B7CF8091AF01DF
:100C2000803208F071C0E091AF0181E08E0F8093B7
:100C3000AF018091BB00F0E0E157FE4F80833DC0E3
:100C4000803B39F0E0F4803A09F479C0883A09F041
:100C50009CCF84E08093F20110928E0110928D015E
:100C6000E091BB01F091BC01099580918D0181114A
:100C70000FC081E080938D0110926D0109C0803C0E
:100C800009F4A6CF883C09F4A3CF883B09F07DCFB7
:100C9000E0918E0181E08E0F80938E01F0E0E359A8
:100CA000FE4F80818093BB0090918E0180918D01D9
:100CB00029C08091CD018093BB0085EC8093BC005E
:100CC00064CF9091EF018091EE01981758F5E09173
:100CD000EF0181E08E0F8093EF01F0E0E253FE4FD1
:100CE0008081E9CFE091EF0181E08E0F8093EF01E9
:100CF0008091BB00F0E0E253FE4F80839091EF01C2
:100D00008091EE019817C8F285E8D8CFE091EF0105
:100D100081E08E0F8093EF018091BB00F0E0E25301
:100D2000FE4F80838091F10181115CCF81E080933F
:100D3000CC0184EA8093BC001092F20126CF85ECAE
:100D40008093BC001092F2018091AF01803230F4A8
:100D5000E091AF01F0E0E157FE4F10826091AF01EA
:100D600070E0E091B901F091BA018FE891E0099546
:100D70001092AF010ACF1092F00134CFCF92DF92E0
:100D8000EF92FF920F931F93E82FF92F05C00150A8
:100D900011092109310961F1908196239417B9F362
:100DA00005C0015011092109310911F190819623E3
:100DB0009413F7CFC12CD12CE12CF12C0AC08FEF6A
:100DC000C81AD80AE80AF80A0C151D052E053F05B1
:100DD00079F080818623841791F36C2D7D2D8E2DE3
:100DE0009F2D1F910F91FF90EF90DF90CF9008956E
:100DF00060E070E080E090E01F910F91FF90EF9035
:100E0000DF90CF900895ECE1F2E01382128288EE39
:100E100093E0A0E0B0E084839583A683B78324E0C9
:100E200031E03183208325EC30E03587248724ECC2
:100E300030E03787268720EC30E0318B208B21ECA7
:100E400030E0338B228B22EC30E0358B248B26EC88
:100E500030E0378B268B118E128E138E148EE9EBB9
:100E6000F2E01382128284839583A683B78386E19E
:100E700091E0918380830895789484B5826084BDE5
:100E800084B5816084BD85B5826085BD85B581608E
:100E900085BD80916E00816080936E00109281000C
:100EA00080918100826080938100809181008160C7
:100EB0008093810080918000816080938000809188
:100EC000B10084608093B1008091B0008160809314
:100ED000B00080917A00846080937A0080917A00DB
:100EE000826080937A0080917A00816080937A009A
:100EF00080917A00806880937A001092C1001092ED
:100F0000BE011092BD011092F90110921B020E94C5
:100F1000C5028CE890E09093BC018093BB018DE802
:100F200090E09093BA018093B901E0912C02F09186
:100F30002D0282E08083E0912802F0912902108244
:100F4000E0912A02F0912B028FEC80831092340200
:100F5000E0913002F091310286E08083E0912E0230
:100F6000F0912F02808180618083E0912E02F091C8
:100F70002F02808188608083E0912E02F0912F0201
:100F8000808180688083E0912E02F0912F02808121
:100F90008F7D808322242394312C4BE0842E912C4E
:100FA000A12CB12C1092C7011092C8011092C90156
:100FB0001092CA011092CB0161E08DE00E941602EE
:100FC00060E08DE00E94E80164E170E080E090E084
:100FD0000E946C0261E08DE00E94E8018BE990E0E4
:100FE0000197F1F760E08DE00E941602C1E1D7E2BF
:100FF0000E94C401892B09F0DFC02197C9F784E260
:1010000091E00E9474044090C3015090C40160902C
:10101000C5017090C601A3019201C301B2010E94F3
:10102000E10B882309F42EC183E391E00E9474044C
:101030008FE391E00E94740481E08093F80184E0E2
:1010400080931A021092F90110921B026091C30161
:101050007091C4018091C5019091C6010E94870AD8
:1010600089EB92E00E9442040E9404036CE271E06A
:1010700080E090E00E946C0261E08CE00E94160229
:1010800060E08CE00E94E80183E090E00197F1F7D6
:1010900061E08CE00E94E80183E290E00197F1F7C3
:1010A00060E08CE00E94E80160E08BE00E941602A4
:1010B000E5EAF0E06491E1E9F0E08491E82FF0E006
:1010C000EE0FFF1FE458FF4F8591949100E412E466
:1010D0002FE030E0462F0E94BE06611571058105A4
:1010E000910529F06F5F7F4F8F4F9F4F9F700E9438
:1010F000BF0A26E933E44BE05DE30E94740B20E075
:1011000030E040E05FE30E94740B0E94870A2B01ED
:101110003C01A50194010E94D409CA01B9010E94B1
:10112000BF0A20E030E040E250E40E94740B6B0103
:101130007C0182E491E00E9474044AE0C301B201A0
:1011400077FE0DC06DE28CE192E00E942E016627D1
:101150007727CB0164197509860997094AE00E942F
:1011600081048FE391E00E94740481E08093F80190
:10117000F5E0F0931A021092F90110921B02C701D8
:10118000B6010E94870A89EB92E00E9442040E9405
:1011900004036CE271E080E090E00E946C0280E069
:1011A00090E0892B09F4FECE0E94F800882309F410
:1011B000F9CE0E940000F6CEC1E1D7E20E94C40140
:1011C000019719F42197D1F71ACFC8E2D0E027E0B0
:1011D000D22EC12C01E117E20E94C401892B21F417
:1011E00001501109C9F70BCF0E9447022B013C01A6
:1011F00001E117E20E94C401019721F40150110995
:10120000C9F7FDCE0E94470264197509860997093E
:10121000693271058105910568F0EC2DF0E0E1542B
:10122000FE4F2085C1010D2C01C0880F0A94EAF7FA
:10123000822B8087D11024C0C39497E0D92E2197A8
:1012400049F66091C70170E090E080E00E94BD0A1D
:101250006093BF017093C0018093C1019093C2015C
:101260006091C90170E090E080E00E94BD0A609347
:10127000C3017093C4018093C5019093C601BFCE92
:10128000DA94DDCF73016201E894F7F82FEF3FEFB6
:101290004FE75FE7C701B6010E94E10B81110DC066
:1012A0002FEF3FEF4FE75FE7C701B6010E94820AC9
:1012B00018161CF487E391E0B9CE2FEF3FEF4FE70C
:1012C0005FE4C301B2010E946F0B18161CF48BE39C
:1012D00091E0ACCE2FEF3FEF4FE75FECC301B201DF
:1012E0000E94820A87FDF3CF20E030E0A901C3010C
:1012F000B2010E94820A87FF09C06DE28CE192E090
:101300000E942E0177FA709477F870942AE037EDF6
:1013100043EA5BE3C301B2010E94160A6B017C0140
:101320000E948E0A2B013C010E94BD0A9B01AC0168
:10133000C701B6010E94150A6B017C014AE0C30196
:10134000B2010E9481046EE28CE192E00E942E01C3
:1013500020E030E040E251E4C701B6010E94740B86
:101360006B017C010E948E0A2B01712C612C4AE0DA
:10137000C301B2010E948104C301B2010E94BD0AEF
:101380009B01AC01C701B6010E94150A20E030E0C4
:1013900040E251E40E94740B0E948E0A90E080E0CB
:1013A0004AE00E94810444CE052E97FB1EF400946F
:1013B0000E94EB0957FD07D00E94F30907FC03D0F8
:1013C0004EF40C94EB0950954095309521953F4F84
:1013D0004F4F5F4F089590958095709561957F4F21
:1013E0008F4F9F4F0895A1E21A2EAA1BBB1BFD0130
:1013F0000DC0AA1FBB1FEE1FFF1FA217B307E407F4
:10140000F50720F0A21BB30BE40BF50B661F771F4B
:10141000881F991F1A9469F760957095809590952B
:101420009B01AC01BD01CF0108955058BB27AA27ED
:101430000E942D0A0C94350B0E94270B38F00E9455
:101440002E0B20F039F49F3F19F426F40C94240B52
:101450000EF4E095E7FB0C941E0BE92F0E94460B5F
:1014600058F3BA17620773078407950720F079F4D9
:10147000A6F50C94680B0EF4E0950B2EBA2FA02D58
:101480000B01B90190010C01CA01A0011124FF2731
:10149000591B99F0593F50F4503E68F11A16F0402C
:1014A000A22F232F342F4427585FF3CF469537952B
:1014B0002795A795F0405395C9F77EF41F16BA0BF0
:1014C000620B730B840BBAF09150A1F0FF0FBB1F9E
:1014D000661F771F881FC2F70EC0BA0F621F731FE7
:1014E000841F48F4879577956795B795F7959E3F44
:1014F00008F0B0CF9395880F08F09927EE0F9795D5
:10150000879508950E94FA0A08F481E008950E94E0
:101510008E0A6894B1110C94690B08950E944E0BC9
:1015200088F09F5798F0B92F9927B751B0F0E1F0A4
:10153000660F771F881F991F1AF0BA95C9F714C054
:10154000B13091F00E94680BB1E008950C94680BE3
:10155000672F782F8827B85F39F0B93FCCF386958D
:1015600077956795B395D9F73EF4909580957095EA
:1015700061957F4F8F4F9F4F0895E89409C097FB67
:101580003EF490958095709561957F4F8F4F9F4F5A
:101590009923A9F0F92F96E9BB279395F69587959E
:1015A00077956795B795F111F8CFFAF4BB0F11F461
:1015B00060FF1BC06F5F7F4F8F4F9F4F16C0882308
:1015C00011F096E911C0772321F09EE8872F762F3E
:1015D00005C0662371F096E8862F70E060E02AF07F
:1015E0009A95660F771F881FDAF7880F969587956B
:1015F00097F90895990F0008550FAA0BE0E8FEEF40
:1016000016161706E807F907C0F012161306E407C6
:10161000F50798F0621B730B840B950B39F40A26BF
:1016200061F0232B242B252B21F408950A2609F49D
:10163000A140A6958FEF811D811D089597F99F67A1
:1016400080E870E060E008959FEF80EC089500244A
:101650000A941616170618060906089500240A9417
:1016600012161306140605060895092E0394000C9D
:1016700011F4882352F0BB0F40F4BF2B11F460FF2C
:1016800004C06F5F7F4F8F4F9F4F089557FD905855
:10169000440F551F59F05F3F71F04795880F97FB36
:1016A000991F61F09F3F79F08795089512161306F0
:1016B0001406551FF2CF4695F1DF08C0161617061F
:1016C0001806991FF1CF8695710561050894089554
:1016D000E894BB2766277727CB0197F908950E94E6
:1016E000FA0A08F48FEF08950E94870B0C94350BCB
:1016F0000E94270B38F00E942E0B20F0952311F04A
:101700000C941E0B0C94240B11240C94690B0E9456
:10171000460B70F3959FC1F3950F50E0551F629FE4
:10172000F001729FBB27F00DB11D639FAA27F00D3A
:10173000B11DAA1F649F6627B00DA11D661F829F61
:101740002227B00DA11D621F739FB00DA11D621F46
:10175000839FA00D611D221F749F3327A00D611D63
:10176000231F849F600D211D822F762F6A2F112445
:101770009F5750409AF0F1F088234AF0EE0FFF1F78
:10178000BB1F661F771F881F91505040A9F79E3FCF
:10179000510580F00C941E0B0C94690B5F3FE4F331
:1017A000983ED4F3869577956795B795F795E79525
:1017B0009F5FC1F7FE2B880F911D9695879597F92E
:1017C00008950E94FA0A880B990B0895EE0FFF1FE7
:1017D0000590F491E02D0994F894FFCF00000000EB
:1017E0002E018E00BB007B01EC00CA00DE00000071
:1017F0000000420415047104EB030E04FB03EC0328
:1018000054656D7065726174757265203A20006E62
:10181000616E00696E66006F7666000D0A004469AD
:081820007374616E6365200022
:107E0000112484B714BE81FFF0D085E080938100F7
:107E100082E08093C00088E18093C10086E0809377
:107E2000C20080E18093C4008EE0C9D0259A86E02C
:107E300020E33CEF91E0309385002093840096BBD3
:107E4000B09BFECF1D9AA8958150A9F7CC24DD24C4
:107E500088248394B5E0AB2EA1E19A2EF3E0BF2EE7
:107E6000A2D0813461F49FD0082FAFD0023811F036
:107E7000013811F484E001C083E08DD089C08234E0
:107E800011F484E103C0853419F485E0A6D080C0E4
:107E9000853579F488D0E82EFF2485D0082F10E0AE
:107EA000102F00270E291F29000F111F8ED06801E7
:107EB0006FC0863521F484E090D080E0DECF843638
:107EC00009F040C070D06FD0082F6DD080E0C81688
:107ED00080E7D80618F4F601B7BEE895C0E0D1E017
:107EE00062D089930C17E1F7F0E0CF16F0E7DF06D8
:107EF00018F0F601B7BEE89568D007B600FCFDCFD4
:107F0000A601A0E0B1E02C9130E011968C91119780
:107F100090E0982F8827822B932B1296FA010C0160
:107F200087BEE89511244E5F5F4FF1E0A038BF0790
:107F300051F7F601A7BEE89507B600FCFDCF97BE46
:107F4000E89526C08437B1F42ED02DD0F82E2BD052
:107F50003CD0F601EF2C8F010F5F1F4F84911BD097
:107F6000EA94F801C1F70894C11CD11CFA94CF0C13
:107F7000D11C0EC0853739F428D08EE10CD085E9AC
:107F80000AD08FE07ACF813511F488E018D01DD067
:107F900080E101D065CF982F8091C00085FFFCCF94
:107FA0009093C60008958091C00087FFFCCF809118
:107FB000C00084FD01C0A8958091C6000895E0E648
:107FC000F0E098E1908380830895EDDF803219F02E
:107FD00088E0F5DFFFCF84E1DECF1F93182FE3DFCA
:107FE0001150E9F7F2DF1F91089580E0E8DFEE27F6
:047FF000FF270994CA
:027FFE00040479
:00000001FF
